{
  "address": "0x3cbaa5910bAD7Ce3eAbF5e4FF628Ad4f14665219",
  "abi": [
    {
      "inputs": [
        {
          "internalType": "contract IEAS",
          "name": "eas_",
          "type": "address"
        },
        {
          "internalType": "uint256",
          "name": "incentive_",
          "type": "uint256"
        },
        {
          "internalType": "address",
          "name": "owner_",
          "type": "address"
        }
      ],
      "stateMutability": "nonpayable",
      "type": "constructor"
    },
    {
      "inputs": [],
      "name": "AccessDenied",
      "type": "error"
    },
    {
      "inputs": [],
      "name": "InsufficientValue",
      "type": "error"
    },
    {
      "inputs": [],
      "name": "InvalidEAS",
      "type": "error"
    },
    {
      "inputs": [],
      "name": "InvalidLength",
      "type": "error"
    },
    {
      "inputs": [],
      "name": "InvalidValue",
      "type": "error"
    },
    {
      "inputs": [],
      "name": "NotPayable",
      "type": "error"
    },
    {
      "anonymous": false,
      "inputs": [
        {
          "indexed": true,
          "internalType": "address",
          "name": "previousOwner",
          "type": "address"
        },
        {
          "indexed": true,
          "internalType": "address",
          "name": "newOwner",
          "type": "address"
        }
      ],
      "name": "OwnershipTransferred",
      "type": "event"
    },
    {
      "inputs": [
        {
          "components": [
            {
              "internalType": "bytes32",
              "name": "uid",
              "type": "bytes32"
            },
            {
              "internalType": "bytes32",
              "name": "schema",
              "type": "bytes32"
            },
            {
              "internalType": "uint64",
              "name": "time",
              "type": "uint64"
            },
            {
              "internalType": "uint64",
              "name": "expirationTime",
              "type": "uint64"
            },
            {
              "internalType": "uint64",
              "name": "revocationTime",
              "type": "uint64"
            },
            {
              "internalType": "bytes32",
              "name": "refUID",
              "type": "bytes32"
            },
            {
              "internalType": "address",
              "name": "recipient",
              "type": "address"
            },
            {
              "internalType": "address",
              "name": "attester",
              "type": "address"
            },
            {
              "internalType": "bool",
              "name": "revocable",
              "type": "bool"
            },
            {
              "internalType": "bytes",
              "name": "data",
              "type": "bytes"
            }
          ],
          "internalType": "struct Attestation",
          "name": "attestation",
          "type": "tuple"
        }
      ],
      "name": "attest",
      "outputs": [
        {
          "internalType": "bool",
          "name": "",
          "type": "bool"
        }
      ],
      "stateMutability": "payable",
      "type": "function"
    },
    {
      "inputs": [],
      "name": "incentive",
      "outputs": [
        {
          "internalType": "uint256",
          "name": "",
          "type": "uint256"
        }
      ],
      "stateMutability": "view",
      "type": "function"
    },
    {
      "inputs": [],
      "name": "isPayable",
      "outputs": [
        {
          "internalType": "bool",
          "name": "",
          "type": "bool"
        }
      ],
      "stateMutability": "pure",
      "type": "function"
    },
    {
      "inputs": [
        {
          "components": [
            {
              "internalType": "bytes32",
              "name": "uid",
              "type": "bytes32"
            },
            {
              "internalType": "bytes32",
              "name": "schema",
              "type": "bytes32"
            },
            {
              "internalType": "uint64",
              "name": "time",
              "type": "uint64"
            },
            {
              "internalType": "uint64",
              "name": "expirationTime",
              "type": "uint64"
            },
            {
              "internalType": "uint64",
              "name": "revocationTime",
              "type": "uint64"
            },
            {
              "internalType": "bytes32",
              "name": "refUID",
              "type": "bytes32"
            },
            {
              "internalType": "address",
              "name": "recipient",
              "type": "address"
            },
            {
              "internalType": "address",
              "name": "attester",
              "type": "address"
            },
            {
              "internalType": "bool",
              "name": "revocable",
              "type": "bool"
            },
            {
              "internalType": "bytes",
              "name": "data",
              "type": "bytes"
            }
          ],
          "internalType": "struct Attestation[]",
          "name": "attestations",
          "type": "tuple[]"
        },
        {
          "internalType": "uint256[]",
          "name": "values",
          "type": "uint256[]"
        }
      ],
      "name": "multiAttest",
      "outputs": [
        {
          "internalType": "bool",
          "name": "",
          "type": "bool"
        }
      ],
      "stateMutability": "payable",
      "type": "function"
    },
    {
      "inputs": [
        {
          "components": [
            {
              "internalType": "bytes32",
              "name": "uid",
              "type": "bytes32"
            },
            {
              "internalType": "bytes32",
              "name": "schema",
              "type": "bytes32"
            },
            {
              "internalType": "uint64",
              "name": "time",
              "type": "uint64"
            },
            {
              "internalType": "uint64",
              "name": "expirationTime",
              "type": "uint64"
            },
            {
              "internalType": "uint64",
              "name": "revocationTime",
              "type": "uint64"
            },
            {
              "internalType": "bytes32",
              "name": "refUID",
              "type": "bytes32"
            },
            {
              "internalType": "address",
              "name": "recipient",
              "type": "address"
            },
            {
              "internalType": "address",
              "name": "attester",
              "type": "address"
            },
            {
              "internalType": "bool",
              "name": "revocable",
              "type": "bool"
            },
            {
              "internalType": "bytes",
              "name": "data",
              "type": "bytes"
            }
          ],
          "internalType": "struct Attestation[]",
          "name": "attestations",
          "type": "tuple[]"
        },
        {
          "internalType": "uint256[]",
          "name": "values",
          "type": "uint256[]"
        }
      ],
      "name": "multiRevoke",
      "outputs": [
        {
          "internalType": "bool",
          "name": "",
          "type": "bool"
        }
      ],
      "stateMutability": "payable",
      "type": "function"
    },
    {
      "inputs": [],
      "name": "owner",
      "outputs": [
        {
          "internalType": "address",
          "name": "",
          "type": "address"
        }
      ],
      "stateMutability": "view",
      "type": "function"
    },
    {
      "inputs": [],
      "name": "renounceOwnership",
      "outputs": [],
      "stateMutability": "nonpayable",
      "type": "function"
    },
    {
      "inputs": [
        {
          "components": [
            {
              "internalType": "bytes32",
              "name": "uid",
              "type": "bytes32"
            },
            {
              "internalType": "bytes32",
              "name": "schema",
              "type": "bytes32"
            },
            {
              "internalType": "uint64",
              "name": "time",
              "type": "uint64"
            },
            {
              "internalType": "uint64",
              "name": "expirationTime",
              "type": "uint64"
            },
            {
              "internalType": "uint64",
              "name": "revocationTime",
              "type": "uint64"
            },
            {
              "internalType": "bytes32",
              "name": "refUID",
              "type": "bytes32"
            },
            {
              "internalType": "address",
              "name": "recipient",
              "type": "address"
            },
            {
              "internalType": "address",
              "name": "attester",
              "type": "address"
            },
            {
              "internalType": "bool",
              "name": "revocable",
              "type": "bool"
            },
            {
              "internalType": "bytes",
              "name": "data",
              "type": "bytes"
            }
          ],
          "internalType": "struct Attestation",
          "name": "attestation",
          "type": "tuple"
        }
      ],
      "name": "revoke",
      "outputs": [
        {
          "internalType": "bool",
          "name": "",
          "type": "bool"
        }
      ],
      "stateMutability": "payable",
      "type": "function"
    },
    {
      "inputs": [
        {
          "internalType": "address",
          "name": "newOwner",
          "type": "address"
        }
      ],
      "name": "transferOwnership",
      "outputs": [],
      "stateMutability": "nonpayable",
      "type": "function"
    },
    {
      "inputs": [
        {
          "internalType": "uint256",
          "name": "newIncentive",
          "type": "uint256"
        }
      ],
      "name": "updateIncentive",
      "outputs": [],
      "stateMutability": "nonpayable",
      "type": "function"
    },
    {
      "inputs": [],
      "name": "version",
      "outputs": [
        {
          "internalType": "string",
          "name": "",
          "type": "string"
        }
      ],
      "stateMutability": "view",
      "type": "function"
    },
    {
      "inputs": [],
      "name": "withdraw",
      "outputs": [],
      "stateMutability": "nonpayable",
      "type": "function"
    },
    {
      "stateMutability": "payable",
      "type": "receive"
    }
  ],
  "transactionHash": "0x41c65453bb26aca3df53cc1cd05e1a0d59376162fa2152b0e0ebe40af33d333e",
  "args": [
    "0xaef4103a04090071165f78d45d83a0c0782c2b2a",
    "690000000000000",
    "0xF54f4815f62ccC360963329789d62d3497A121Ae"
  ],
  "numDeployments": 1,
  "solcInputHash": "148db26e55067bb3978a1728ddd601bb",
  "bytecode": "0x61010060405234801561001157600080fd5b50604051610d23380380610d23833981016040819052610030916101d1565b6001608052600360a052600060c052826001600160a01b038116610067576040516341bc07ff60e11b815260040160405180910390fd5b6001600160a01b031660e05261007c33610092565b600182905561008a816100e2565b505050610214565b600080546001600160a01b038381166001600160a01b0319831681178455604051919092169283917f8be0079c531659141344cd1fd0a4f28419497f9722a3daafe3b4186f6b6457e09190a35050565b6100ea610160565b6001600160a01b0381166101545760405162461bcd60e51b815260206004820152602660248201527f4f776e61626c653a206e6577206f776e657220697320746865207a65726f206160448201526564647265737360d01b60648201526084015b60405180910390fd5b61015d81610092565b50565b6000546001600160a01b031633146101ba5760405162461bcd60e51b815260206004820181905260248201527f4f776e61626c653a2063616c6c6572206973206e6f7420746865206f776e6572604482015260640161014b565b565b6001600160a01b038116811461015d57600080fd5b6000806000606084860312156101e657600080fd5b83516101f1816101bc565b602085015160408601519194509250610209816101bc565b809150509250925092565b60805160a05160c05160e051610ad661024d60003960006106d6015260006102ee015260006102c50152600061029c0152610ad66000f3fe6080604052600436106100ab5760003560e01c806391db0b7e1161006457806391db0b7e14610179578063a09b88a81461018c578063ce46e046146101ac578063e49617e1146101c0578063e60c3505146101d3578063f2fde38b146101e657600080fd5b80631d4632ac146100b95780633ccfd60b146100e257806354fd4d50146100f7578063715018a61461011957806388e5b2d91461012e5780638da5cb5b1461015157600080fd5b366100b457005b005b600080fd5b3480156100c557600080fd5b506100cf60015481565b6040519081526020015b60405180910390f35b3480156100ee57600080fd5b506100b2610206565b34801561010357600080fd5b5061010c610295565b6040516100d99190610889565b34801561012557600080fd5b506100b2610338565b61014161013c366004610908565b61034c565b60405190151581526020016100d9565b34801561015d57600080fd5b506000546040516001600160a01b0390911681526020016100d9565b610141610187366004610908565b61041b565b34801561019857600080fd5b506100b26101a7366004610974565b6104da565b3480156101b857600080fd5b506001610141565b6101416101ce36600461098d565b6104e7565b6101416101e136600461098d565b610501565b3480156101f257600080fd5b506100b26102013660046109d0565b610515565b61020e61058e565b47806102585760405162461bcd60e51b81526020600482015260146024820152734e6f2066756e647320746f20776974686472617760601b60448201526064015b60405180910390fd5b600080546040516001600160a01b039091169183156108fc02918491818181858888f19350505050158015610291573d6000803e3d6000fd5b5050565b60606102c07f00000000000000000000000000000000000000000000000000000000000000006105e8565b6102e97f00000000000000000000000000000000000000000000000000000000000000006105e8565b6103127f00000000000000000000000000000000000000000000000000000000000000006105e8565b604051602001610324939291906109f9565b604051602081830303815290604052905090565b61034061058e565b61034a600061067b565b565b60006103566106cb565b838281146103775760405163251f56a160e21b815260040160405180910390fd5b3460005b8281101561040b57600086868381811061039757610397610a53565b905060200201359050828111156103c15760405163044044a560e21b815260040160405180910390fd5b6103ee8989848181106103d6576103d6610a53565b90506020028101906103e89190610a69565b82610714565b6103ff576000945050505050610413565b9091039060010161037b565b506001925050505b949350505050565b60006104256106cb565b838281146104465760405163251f56a160e21b815260040160405180910390fd5b3460005b8281101561040b57600086868381811061046657610466610a53565b905060200201359050828111156104905760405163044044a560e21b815260040160405180910390fd5b6104bd8989848181106104a5576104a5610a53565b90506020028101906104b79190610a69565b8261077d565b6104ce576000945050505050610413565b9091039060010161044a565b6104e261058e565b600155565b60006104f16106cb565b6104fb8234610714565b92915050565b600061050b6106cb565b6104fb823461077d565b61051d61058e565b6001600160a01b0381166105825760405162461bcd60e51b815260206004820152602660248201527f4f776e61626c653a206e6577206f776e657220697320746865207a65726f206160448201526564647265737360d01b606482015260840161024f565b61058b8161067b565b50565b6000546001600160a01b0316331461034a5760405162461bcd60e51b815260206004820181905260248201527f4f776e61626c653a2063616c6c6572206973206e6f7420746865206f776e6572604482015260640161024f565b606060006105f58361078d565b600101905060008167ffffffffffffffff81111561061557610615610a8a565b6040519080825280601f01601f19166020018201604052801561063f576020820181803683370190505b5090508181016020015b600019016f181899199a1a9b1b9c1cb0b131b232b360811b600a86061a8153600a850494508461064957509392505050565b600080546001600160a01b038381166001600160a01b0319831681178455604051919092169283917f8be0079c531659141344cd1fd0a4f28419497f9722a3daafe3b4186f6b6457e09190a35050565b336001600160a01b037f0000000000000000000000000000000000000000000000000000000000000000161461034a57604051634ca8886760e01b815260040160405180910390fd5b6000600154821115610728575060006104fb565b610739610100840160e085016109d0565b6001600160a01b03166108fc6001549081150290604051600060405180830381858888f19350505050158015610773573d6000803e3d6000fd5b5060019392505050565b60008115610728575060006104fb565b60008072184f03e93ff9f4daa797ed6e38ed64bf6a1f0160401b83106107cc5772184f03e93ff9f4daa797ed6e38ed64bf6a1f0160401b830492506040015b6d04ee2d6d415b85acef810000000083106107f8576d04ee2d6d415b85acef8100000000830492506020015b662386f26fc10000831061081657662386f26fc10000830492506010015b6305f5e100831061082e576305f5e100830492506008015b612710831061084257612710830492506004015b60648310610854576064830492506002015b600a83106104fb5760010192915050565b60005b83811015610880578181015183820152602001610868565b50506000910152565b60208152600082518060208401526108a8816040850160208701610865565b601f01601f19169190910160400192915050565b60008083601f8401126108ce57600080fd5b50813567ffffffffffffffff8111156108e657600080fd5b6020830191508360208260051b850101111561090157600080fd5b9250929050565b6000806000806040858703121561091e57600080fd5b843567ffffffffffffffff8082111561093657600080fd5b610942888389016108bc565b9096509450602087013591508082111561095b57600080fd5b50610968878288016108bc565b95989497509550505050565b60006020828403121561098657600080fd5b5035919050565b60006020828403121561099f57600080fd5b813567ffffffffffffffff8111156109b657600080fd5b820161014081850312156109c957600080fd5b9392505050565b6000602082840312156109e257600080fd5b81356001600160a01b03811681146109c957600080fd5b60008451610a0b818460208901610865565b8083019050601760f91b8082528551610a2b816001850160208a01610865565b60019201918201528351610a46816002840160208801610865565b0160020195945050505050565b634e487b7160e01b600052603260045260246000fd5b6000823561013e19833603018112610a8057600080fd5b9190910192915050565b634e487b7160e01b600052604160045260246000fdfea26469706673582212208aca0546061a2df5395beba089fee772e67bc122786460cc26342675d4f11de364736f6c63430008130033",
  "devdoc": {
    "kind": "dev",
    "methods": {
      "attest((bytes32,bytes32,uint64,uint64,uint64,bytes32,address,address,bool,bytes))": {
        "params": {
          "attestation": "The new attestation."
        },
        "returns": {
          "_0": "Whether the attestation is valid."
        }
      },
      "isPayable()": {
        "returns": {
          "_0": "Whether the resolver supports ETH transfers."
        }
      },
      "multiAttest((bytes32,bytes32,uint64,uint64,uint64,bytes32,address,address,bool,bytes)[],uint256[])": {
        "params": {
          "attestations": "The new attestations.",
          "values": "Explicit ETH amounts which were sent with each attestation."
        },
        "returns": {
          "_0": "Whether all the attestations are valid."
        }
      },
      "multiRevoke((bytes32,bytes32,uint64,uint64,uint64,bytes32,address,address,bool,bytes)[],uint256[])": {
        "params": {
          "attestations": "The existing attestations to be revoked.",
          "values": "Explicit ETH amounts which were sent with each revocation."
        },
        "returns": {
          "_0": "Whether the attestations can be revoked."
        }
      },
      "owner()": {
        "details": "Returns the address of the current owner."
      },
      "renounceOwnership()": {
        "details": "Leaves the contract without owner. It will not be possible to call `onlyOwner` functions anymore. Can only be called by the current owner. NOTE: Renouncing ownership will leave the contract without an owner, thereby removing any functionality that is only available to the owner."
      },
      "revoke((bytes32,bytes32,uint64,uint64,uint64,bytes32,address,address,bool,bytes))": {
        "params": {
          "attestation": "The existing attestation to be revoked."
        },
        "returns": {
          "_0": "Whether the attestation can be revoked."
        }
      },
      "transferOwnership(address)": {
        "details": "Transfers ownership of the contract to a new account (`newOwner`). Can only be called by the current owner."
      },
      "version()": {
        "returns": {
          "_0": "Semver contract version as a string."
        }
      }
    },
    "title": "PrezkriptionRewardsResolver",
    "version": 1
  },
  "userdoc": {
    "kind": "user",
    "methods": {
      "attest((bytes32,bytes32,uint64,uint64,uint64,bytes32,address,address,bool,bytes))": {
        "notice": "Processes an attestation and verifies whether it's valid."
      },
      "isPayable()": {
        "notice": "Checks if the resolver can be sent ETH."
      },
      "multiAttest((bytes32,bytes32,uint64,uint64,uint64,bytes32,address,address,bool,bytes)[],uint256[])": {
        "notice": "Processes multiple attestations and verifies whether they are valid."
      },
      "multiRevoke((bytes32,bytes32,uint64,uint64,uint64,bytes32,address,address,bool,bytes)[],uint256[])": {
        "notice": "Processes revocation of multiple attestation and verifies they can be revoked."
      },
      "revoke((bytes32,bytes32,uint64,uint64,uint64,bytes32,address,address,bool,bytes))": {
        "notice": "Processes an attestation revocation and verifies if it can be revoked."
      },
      "version()": {
        "notice": "Returns the full semver contract version."
      }
    },
    "notice": "A schema resolver that pays attesters for generated prezkriptions,as well as fulfilled prescriptions (per revoking attestation)",
    "version": 1
  },
  "storageLayout": {
    "storage": [
      {
        "astId": 7,
        "contract": "contracts/PrezkriptionRewardsResolver.sol:PrezkriptionRewardsResolver",
        "label": "_owner",
        "offset": 0,
        "slot": "0",
        "type": "t_address"
      },
      {
        "astId": 1590,
        "contract": "contracts/PrezkriptionRewardsResolver.sol:PrezkriptionRewardsResolver",
        "label": "incentive",
        "offset": 0,
        "slot": "1",
        "type": "t_uint256"
      }
    ],
    "types": {
      "t_address": {
        "encoding": "inplace",
        "label": "address",
        "numberOfBytes": "20"
      },
      "t_uint256": {
        "encoding": "inplace",
        "label": "uint256",
        "numberOfBytes": "32"
      }
    }
  }
}